{
  "_format": "hh-sol-artifact-1",
  "contractName": "Bank",
  "sourceName": "contracts/Bank.sol",
  "abi": [
    {
      "inputs": [],
      "stateMutability": "nonpayable",
      "type": "constructor"
    },
    {
      "inputs": [
        {
          "internalType": "bytes32",
          "name": "symbol",
          "type": "bytes32"
        },
        {
          "internalType": "uint256",
          "name": "amount",
          "type": "uint256"
        }
      ],
      "name": "depositTokens",
      "outputs": [],
      "stateMutability": "nonpayable",
      "type": "function"
    },
    {
      "inputs": [
        {
          "internalType": "bytes32",
          "name": "symbol",
          "type": "bytes32"
        }
      ],
      "name": "getTokenBalance",
      "outputs": [
        {
          "internalType": "uint256",
          "name": "",
          "type": "uint256"
        }
      ],
      "stateMutability": "view",
      "type": "function"
    },
    {
      "inputs": [
        {
          "internalType": "bytes32",
          "name": "symbol",
          "type": "bytes32"
        }
      ],
      "name": "getWhiteListedTokenBalances",
      "outputs": [
        {
          "internalType": "uint256",
          "name": "",
          "type": "uint256"
        }
      ],
      "stateMutability": "view",
      "type": "function"
    },
    {
      "inputs": [],
      "name": "getWhiteListedTokenSymbols",
      "outputs": [
        {
          "internalType": "bytes32[]",
          "name": "",
          "type": "bytes32[]"
        }
      ],
      "stateMutability": "view",
      "type": "function"
    },
    {
      "inputs": [],
      "name": "owner",
      "outputs": [
        {
          "internalType": "address",
          "name": "",
          "type": "address"
        }
      ],
      "stateMutability": "view",
      "type": "function"
    },
    {
      "inputs": [
        {
          "internalType": "bytes32",
          "name": "_symbol",
          "type": "bytes32"
        },
        {
          "internalType": "address",
          "name": "tokenAddress",
          "type": "address"
        }
      ],
      "name": "whiteListTokens",
      "outputs": [],
      "stateMutability": "nonpayable",
      "type": "function"
    },
    {
      "inputs": [
        {
          "internalType": "uint256",
          "name": "",
          "type": "uint256"
        }
      ],
      "name": "whiteListedSymbols",
      "outputs": [
        {
          "internalType": "bytes32",
          "name": "",
          "type": "bytes32"
        }
      ],
      "stateMutability": "view",
      "type": "function"
    },
    {
      "inputs": [
        {
          "internalType": "uint256",
          "name": "amount",
          "type": "uint256"
        }
      ],
      "name": "withdrawETH",
      "outputs": [],
      "stateMutability": "payable",
      "type": "function"
    },
    {
      "inputs": [
        {
          "internalType": "bytes32",
          "name": "symbol",
          "type": "bytes32"
        },
        {
          "internalType": "uint256",
          "name": "amount",
          "type": "uint256"
        }
      ],
      "name": "withdrawTokens",
      "outputs": [],
      "stateMutability": "nonpayable",
      "type": "function"
    },
    {
      "stateMutability": "payable",
      "type": "receive"
    }
  ],
  "bytecode": "0x60a060405234801561001057600080fd5b503373ffffffffffffffffffffffffffffffffffffffff1660808173ffffffffffffffffffffffffffffffffffffffff1681525050608051610fce6100676000396000818161030801526105b20152610fce6000f3fe60806040526004361061008a5760003560e01c80638da5cb5b116100595780638da5cb5b1461022e578063c6da400014610259578063c9ad5f8414610284578063f14210a6146102ad578063f96fa9fd146102c95761015d565b80631fa9dca314610162578063222b89471461018b57806378a3036f146101b457806388db6ac6146101f15761015d565b3661015d57600080600181540180825580915050600190039060005260206000200160007f455448000000000000000000000000000000000000000000000000000000000090919091505534600260003373ffffffffffffffffffffffffffffffffffffffff1673ffffffffffffffffffffffffffffffffffffffff16815260200190815260200160002060007f45544800000000000000000000000000000000000000000000000000000000008152602001908152602001600020600082825461015591906109f3565b925050819055005b600080fd5b34801561016e57600080fd5b5061018960048036038101906101849190610ac0565b610306565b005b34801561019757600080fd5b506101b260048036038101906101ad9190610b2c565b610413565b005b3480156101c057600080fd5b506101db60048036038101906101d69190610b6c565b610532565b6040516101e89190610ba8565b60405180910390f35b3480156101fd57600080fd5b5061021860048036038101906102139190610bc3565b610556565b6040516102259190610bff565b60405180910390f35b34801561023a57600080fd5b506102436105b0565b6040516102509190610c29565b60405180910390f35b34801561026557600080fd5b5061026e6105d4565b60405161027b9190610d02565b60405180910390f35b34801561029057600080fd5b506102ab60048036038101906102a69190610b2c565b61062c565b005b6102c760048036038101906102c29190610b6c565b6107dc565b005b3480156102d557600080fd5b506102f060048036038101906102eb9190610bc3565b610960565b6040516102fd9190610bff565b60405180910390f35b7f000000000000000000000000000000000000000000000000000000000000000073ffffffffffffffffffffffffffffffffffffffff163373ffffffffffffffffffffffffffffffffffffffff1614610394576040517f08c379a000000000000000000000000000000000000000000000000000000000815260040161038b90610da7565b60405180910390fd5b806001600084815260200190815260200160002060006101000a81548173ffffffffffffffffffffffffffffffffffffffff021916908373ffffffffffffffffffffffffffffffffffffffff16021790555060008290806001815401808255809150506001900390600052602060002001600090919091909150555050565b80600260003373ffffffffffffffffffffffffffffffffffffffff1673ffffffffffffffffffffffffffffffffffffffff1681526020019081526020016000206000848152602001908152602001600020600082825461047391906109f3565b925050819055506001600083815260200190815260200160002060009054906101000a900473ffffffffffffffffffffffffffffffffffffffff1673ffffffffffffffffffffffffffffffffffffffff166323b872dd3330846040518463ffffffff1660e01b81526004016104ea93929190610dc7565b6020604051808303816000875af1158015610509573d6000803e3d6000fd5b505050506040513d601f19601f8201168201806040525081019061052d9190610e36565b505050565b6000818154811061054257600080fd5b906000526020600020016000915090505481565b6000600260003373ffffffffffffffffffffffffffffffffffffffff1673ffffffffffffffffffffffffffffffffffffffff1681526020019081526020016000206000838152602001908152602001600020549050919050565b7f000000000000000000000000000000000000000000000000000000000000000081565b6060600080548060200260200160405190810160405280929190818152602001828054801561062257602002820191906000526020600020905b81548152602001906001019080831161060e575b5050505050905090565b80600260003373ffffffffffffffffffffffffffffffffffffffff1673ffffffffffffffffffffffffffffffffffffffff16815260200190815260200160002060008481526020019081526020016000205410156106bf576040517f08c379a00000000000000000000000000000000000000000000000000000000081526004016106b690610eaf565b60405180910390fd5b6001600083815260200190815260200160002060009054906101000a900473ffffffffffffffffffffffffffffffffffffffff1673ffffffffffffffffffffffffffffffffffffffff1663a9059cbb33836040518363ffffffff1660e01b815260040161072d929190610ecf565b6020604051808303816000875af115801561074c573d6000803e3d6000fd5b505050506040513d601f19601f820116820180604052508101906107709190610e36565b5080600260003373ffffffffffffffffffffffffffffffffffffffff1673ffffffffffffffffffffffffffffffffffffffff168152602001908152602001600020600084815260200190815260200160002060008282546107d19190610ef8565b925050819055505050565b80600260003373ffffffffffffffffffffffffffffffffffffffff1673ffffffffffffffffffffffffffffffffffffffff16815260200190815260200160002060007f4554480000000000000000000000000000000000000000000000000000000000815260200190815260200160002054101561088f576040517f08c379a000000000000000000000000000000000000000000000000000000000815260040161088690610f78565b60405180910390fd5b3373ffffffffffffffffffffffffffffffffffffffff166108fc829081150290604051600060405180830381858888f193505050501580156108d5573d6000803e3d6000fd5b5080600260003373ffffffffffffffffffffffffffffffffffffffff1673ffffffffffffffffffffffffffffffffffffffff16815260200190815260200160002060007f4554480000000000000000000000000000000000000000000000000000000000815260200190815260200160002060008282546109569190610ef8565b9250508190555050565b6000600260003373ffffffffffffffffffffffffffffffffffffffff1673ffffffffffffffffffffffffffffffffffffffff1681526020019081526020016000206000838152602001908152602001600020549050919050565b6000819050919050565b7f4e487b7100000000000000000000000000000000000000000000000000000000600052601160045260246000fd5b60006109fe826109ba565b9150610a09836109ba565b9250828201905080821115610a2157610a206109c4565b5b92915050565b600080fd5b6000819050919050565b610a3f81610a2c565b8114610a4a57600080fd5b50565b600081359050610a5c81610a36565b92915050565b600073ffffffffffffffffffffffffffffffffffffffff82169050919050565b6000610a8d82610a62565b9050919050565b610a9d81610a82565b8114610aa857600080fd5b50565b600081359050610aba81610a94565b92915050565b60008060408385031215610ad757610ad6610a27565b5b6000610ae585828601610a4d565b9250506020610af685828601610aab565b9150509250929050565b610b09816109ba565b8114610b1457600080fd5b50565b600081359050610b2681610b00565b92915050565b60008060408385031215610b4357610b42610a27565b5b6000610b5185828601610a4d565b9250506020610b6285828601610b17565b9150509250929050565b600060208284031215610b8257610b81610a27565b5b6000610b9084828501610b17565b91505092915050565b610ba281610a2c565b82525050565b6000602082019050610bbd6000830184610b99565b92915050565b600060208284031215610bd957610bd8610a27565b5b6000610be784828501610a4d565b91505092915050565b610bf9816109ba565b82525050565b6000602082019050610c146000830184610bf0565b92915050565b610c2381610a82565b82525050565b6000602082019050610c3e6000830184610c1a565b92915050565b600081519050919050565b600082825260208201905092915050565b6000819050602082019050919050565b610c7981610a2c565b82525050565b6000610c8b8383610c70565b60208301905092915050565b6000602082019050919050565b6000610caf82610c44565b610cb98185610c4f565b9350610cc483610c60565b8060005b83811015610cf5578151610cdc8882610c7f565b9750610ce783610c97565b925050600181019050610cc8565b5085935050505092915050565b60006020820190508181036000830152610d1c8184610ca4565b905092915050565b600082825260208201905092915050565b7f6f6e6c79206f776e65722063616e2077686974656c6973742074686520746f6b60008201527f656e730000000000000000000000000000000000000000000000000000000000602082015250565b6000610d91602383610d24565b9150610d9c82610d35565b604082019050919050565b60006020820190508181036000830152610dc081610d84565b9050919050565b6000606082019050610ddc6000830186610c1a565b610de96020830185610c1a565b610df66040830184610bf0565b949350505050565b60008115159050919050565b610e1381610dfe565b8114610e1e57600080fd5b50565b600081519050610e3081610e0a565b92915050565b600060208284031215610e4c57610e4b610a27565b5b6000610e5a84828501610e21565b91505092915050565b7f696e737566666963656e742062616c616e636500000000000000000000000000600082015250565b6000610e99601383610d24565b9150610ea482610e63565b602082019050919050565b60006020820190508181036000830152610ec881610e8c565b9050919050565b6000604082019050610ee46000830185610c1a565b610ef16020830184610bf0565b9392505050565b6000610f03826109ba565b9150610f0e836109ba565b9250828203905081811115610f2657610f256109c4565b5b92915050565b7f20696e73756666696369656e742062616c616e63650000000000000000000000600082015250565b6000610f62601583610d24565b9150610f6d82610f2c565b602082019050919050565b60006020820190508181036000830152610f9181610f55565b905091905056fea2646970667358221220600b8c71ce5be99444b35761eb3b1504daded9c143f734e755ce4dcef117af2064736f6c63430008120033",
  "linkReferences": {},
  "deployedLinkReferences": {}
}